:100000000C94FD000C9425010C9425010C94B10B6B
:100010000C94B10B0C94B10B0C9425010C9425019C
:100020000C9425010C9425010C9425010C942501B8
:100030000C9425010C9425010C9425010C942501A8
:100040000C944C0A0C9425010C941A0A0C94F40993
:100050000C9425010C9425010C9425010C94250188
:100060000C94960A0C9425014E414E494E49545920
:10007000494E46CDCCCC3D0AD7233C17B7D1387773
:10008000CC2B329595E6241FB14F0A000020410089
:1000900000C84200401C4620BCBE4CCA1B0E5AAED3
:1000A000C59D7400407A10F35A00A0724E180900E2
:1000B00010A5D4E80000E87648170000E40B5402CD
:1000C0000000CA9A3B000000E1F505000080969808
:1000D00000000040420F000000A086010000001058
:1000E0002700000000E8030000000064000000009A
:1000F000000A00000000000100000000002C76D87B
:1001000088DC674F0823DFC1DFAE59E1B1B796E560
:10011000E3E453C63AE651997696E8E6C28426EBC4
:10012000898C9B62ED407C6FFCEFBC9C9F40F2BAD7
:10013000A56FA5F490055A2AF75C936B6CF9676D6F
:10014000C11BFCE0E40D47FEF520E6B500D0ED90C4
:100150002E0300943577050080841E080000204E91
:100160000A000000C80C333333330F986E1283112A
:1001700041EF8D2114893BE65516CFFEE6DB18D101
:10018000844B381BF77C1D901DA4BBE424203284D3
:10019000725E228100C9F124ECA1E53D2700000038
:1001A0000800020100000304070000000000000036
:1001B00000000000002300260029000000000024A9
:1001C0000027002A0000000000250028002B000165
:1001D00002040810204080010204081020010204DB
:1001E00008102004040404040404040202020202AD
:1001F0000203030303030300BB0B11241FBECFEF55
:10020000D8E0DEBFCDBF24E0A6E8B1E001C01D927A
:10021000A935B207E1F711E0A0E0B1E0E8E0FCE3C6
:1002200002C005900D92A638B107D9F710E0CDEFC6
:10023000D0E004C02197FE010E94E51BCC3FD1070E
:10024000C9F70E94620C0C94021E0C940000E7E0B7
:10025000F2E0A089B18982E08C93A485B5851C92D7
:10026000A685B7858FEC8C93108EA489B58986E01E
:100270008C93A289B3898C9180618C93A289B38974
:100280008C9188608C93A289B3898C9180688C93BF
:100290000288F389E02D80818F7D80830895EF921D
:1002A000FF920F931F93CF93DF93C091B203D0912E
:1002B000B3038091E60304E610E0811101C08E01D2
:1002C000CE01880F991F9C0126513D4F7901609105
:1002D000E7037091E8038091E9039091EA030E949B
:1002E0007A1BF70171836083EAEEF2E030E020E0F0
:1002F00090E080E0201731073CF441915191840F48
:10030000951F2F5F3F4FF6CFB8010E94B51B70932A
:10031000EC036093EB032196D093B303C093B20335
:10032000C336D10539F481E08093E6031092B3031C
:100330001092B203DF91CF911F910F91FF90EF9038
:100340000895AF92BF92CF92DF92EF92FF920F93F8
:100350001F93CF93DF936C017B018B01040F151F5B
:10036000EB015E01AE18BF08C017D10759F06991C3
:10037000D601ED91FC910190F081E02DC601099527
:10038000892B79F7C501DF91CF911F910F91FF90D4
:10039000EF90DF90CF90BF90AF900895823091059D
:1003A00038F0880F991F880F991F05970197F1F76B
:1003B00008950895FC01538D448D252F30E0842F3E
:1003C00090E0821B930B541710F0CF96089501977D
:1003D0000895FC01918D828D981761F0A28DAE0F6A
:1003E000BF2FB11D5D968C91928D9F5F9F73928FF1
:1003F00090E008958FEF9FEF0895FC01918D828D1D
:10040000981731F0828DE80FF11D858D90E00895E9
:100410008FEF9FEF0895FC01918D228D892F90E041
:10042000805C9F4F821B91098F739927089587E005
:1004300092E00E940B0221E0892B09F420E0822F38
:10044000089580E090E0892B29F00E941702811125
:100450000C9400000895FC01A48DA80FB92FB11DC4
:10046000A35ABF4F2C91848D90E001968F739927EA
:10047000848FA689B7892C93A089B1898C918370C8
:1004800080648C93938D848D981306C00288F389C1
:10049000E02D80818F7D80830895EF92FF920F93EE
:1004A0001F93CF93DF93EC0181E0888F9B8D8C8D20
:1004B00098131AC0E889F989808185FF15C09FB714
:1004C000F894EE89FF896083E889F98980818370D7
:1004D000806480839FBF81E090E0DF91CF911F9186
:1004E0000F91FF90EF900895F62E0B8D10E00F5FA7
:1004F0001F4F0F731127E02E8C8D8E110CC00FB67D
:1005000007FCFACFE889F989808185FFF5CFCE0114
:100510000E942B02F1CFEB8DEC0FFD2FF11DE35A62
:10052000FF4FF0829FB7F8940B8FEA89FB89808197
:100530008062CFCFCF93DF93EC01888D8823B9F011
:10054000AA89BB89E889F9898C9185FD03C08081DE
:1005500086FD0DC00FB607FCF7CF8C9185FFF2CF5B
:10056000808185FFEDCFCE010E942B02E9CFDF9184
:10057000CF910895833081F028F4813099F0823052
:10058000A9F008958730A9F08830C9F08430B1F41B
:10059000809180008F7D03C0809180008F77809351
:1005A0008000089584B58F7784BD089584B58F7DCC
:1005B000FBCF8091B0008F778093B0000895809139
:1005C000B0008F7DF9CFCF93DF93282F30E0F90172
:1005D000E356FE4F8491F901E153FE4FD491F901A6
:1005E000ED51FE4FC491CC23A1F081110E94BA02BB
:1005F000EC2FF0E0EE0FFF1FEF54FE4FA591B491EA
:10060000EC91ED2381E090E009F480E0DF91CF915F
:10061000089580E090E0FACF1F93CF93DF93282FC7
:1006200030E0F901E356FE4F8491F901E153FE4FAA
:10063000D491F901ED51FE4FC491CC23A9F0162FAE
:1006400081110E94BA02EC2FF0E0EE0FFF1FEB5376
:10065000FE4FA591B4918FB7F894EC91111108C099
:10066000D095DE23DC938FBFDF91CF911F9108954A
:10067000DE2BF8CFCF93DF9390E0FC01E153FE4FE8
:1006800024918D519E4FFC0184918823D1F090E0FC
:10069000880F991FFC01E554FE4FA591B491FC0110
:1006A000EB53FE4FC591D49161110EC09FB7F894E2
:1006B0008C91E22FE0958E238C932881E223E883AE
:1006C0009FBFDF91CF9108958FB7F894EC91E22B03
:1006D000EC938FBFF6CF1F93CF93DF93182FEB01CF
:1006E00061E00E943A03209739F460E0812FDF91A6
:1006F000CF911F910C940C03CF3FD10511F461E011
:10070000F5CFE12FF0E0E356FE4FE491E33031F115
:1007100040F4E130B1F0E230E1F0C038D1057CF7CF
:10072000E4CFE73029F1E83059F1E430B1F78091B6
:100730008000806280938000D0938B00C0938A00F9
:1007400004C084B5806884BDC7BDDF91CF911F917F
:10075000089584B5806284BDC8BDF7CF80918000C4
:10076000806880938000D0938900C0938800EDCF8B
:100770008091B00080688093B000C093B300E5CF53
:100780008091B00080628093B000C093B400DDCF50
:100790003FB7F8948091F9019091FA01A091FB0183
:1007A000B091FC0126B5A89B05C02F3F19F001961A
:1007B000A11DB11D3FBFBA2FA92F982F8827BC01BB
:1007C000CD01620F711D811D911D42E0660F771FE3
:1007D000881F991F4A95D1F708958F929F92AF92E3
:1007E000BF92CF92DF92EF92FF924B015C010E9489
:1007F000C8036B017C010E94C8036C197D098E0936
:100800009F09683E734081059105A8F321E0821A93
:100810009108A108B10888EEC80E83E0D81EE11C3B
:10082000F11C81149104A104B10429F7FF90EF9009
:10083000DF90CF90BF90AF909F908F9008952FB78B
:10084000F8946091F5017091F6018091F701909113
:10085000F8012FBF08950F931F930E941F04609308
:100860000F0270931002809311029093120287E09E
:1008700092E00E94E90197FF1DC00E941F040091B1
:100880000F02109110022091110230911202601B90
:10089000710B820B930B00910B0210910C022091B3
:1008A0000D0230910E026017710782079307F8F26C
:1008B0008FEF9FEF1F910F91089585ED8093BC00FE
:1008C0008091BC0084FDFCCF1092CE010895209150
:1008D000AA01260F3327331F21323105ECF4209172
:1008E000CE01FC0190E080E0243069F082E00895C0
:1008F000A091AA012191AC0146575E4FA40FB52FDC
:10090000B11D2C930196861798F38091AA01680F68
:100910006093AA0180E0089581E008958FEF9FEF32
:1009200008958FEF9FEF08958091890190E0919550
:10093000819591090895CF93DF93CB01EA01642F4C
:100940000E946704CE01DF91CF910895CF93DF938A
:100950001F92CDB7DEB7698361E0CE0101960E9498
:10096000670481E090E00F90DF91CF910895CF92DE
:10097000DF92EF92FF920F931F93CF93DF93EC01DF
:10098000EA89FB8990818F85809589238083EE8910
:10099000FF8980819F85892B8083E889F9899081EF
:1009A0008E85809589238083EC89FD8980819E8551
:1009B000892B80838D8D9E8D009711F00E94CE0132
:1009C000EE89FF8990818F858095892380838F8D23
:1009D000882331F0EA89FB8980819F85892B808378
:1009E00088A18823C9F00E941F046B017C01EA8D55
:1009F000FB8D80819F85892379F40E941F046C19E7
:100A00007D098E099F0909A11AA12BA13CA160179C
:100A100071078207930758F38D8D9E8D009711F013
:100A20000E94CE01EC89FD8990818E858095892375
:100A300080838F8D882331F0E889F98980819E85B4
:100A4000892B80838D8D9E8D009751F0DF91CF9102
:100A50001F910F91FF90EF90DF90CF900C94CE01FB
:100A6000DF91CF911F910F91FF90EF90DF90CF908A
:100A70000895CF93DF93EC01EC89FD8990818E85F9
:100A80008095892380838F8D882331F0E889F989C7
:100A900080819E85892B8083EE89FF8990818F8557
:100AA0008095892380838F8D882331F0EA89FB89A3
:100AB00080819F85892B80838D8D9E8D009711F07D
:100AC0000E94CE01E88DF98D90818E859823EA8D64
:100AD000FB8D20813F85232311F480E028C09923DA
:100AE000E1F3E889F9899081809589238083EC89F5
:100AF000FD8980819E85892B80838D8D9E8D0097B9
:100B000011F00E94CE01EA89FB8990818F85809542
:100B100089238083EE89FF8980819F85892B80834B
:100B20008D8D9E8D009711F00E94CE0181E0DF91A6
:100B3000CF910895CF92DF92EF92FF920F931F9380
:100B4000CF93DF93EC01EC89FD8990818E858095B0
:100B5000892380838F8D882331F0E889F98980810A
:100B60009E85892B8083EE89FF8990818F85809572
:100B7000892380838F8D882331F0EA89FB898081E6
:100B80009F85892B808388A18823C9F00E941F0438
:100B90006B017C01EA8DFB8D80819F85892379F42F
:100BA0000E941F046C197D098E099F0909A11AA1D1
:100BB0002BA13CA1601771078207930758F38D8D15
:100BC0009E8D009711F00E94CE01E88DF98D8081F5
:100BD0009E85892311E009F410E0EA89FB89908160
:100BE0008F85809589238083EE89FF8980819F8509
:100BF000892B80838D8D9E8D009711F00E94CE01F0
:100C0000812FDF91CF911F910F91FF90EF90DF9097
:100C1000CF900895CF92DF92EF92FF920F931F93A0
:100C2000CF93DF93EC018E85809561115EC0E889DA
:100C3000F989908189238083EC89FD8980819E8553
:100C4000892B80838D8D9E8D009711F00E94CE019F
:100C5000EE89FF8990818F858095892380838F8D90
:100C6000882331F0EA89FB8980819F85892B8083E5
:100C700088A18823C9F00E941F046B017C01EA8DC2
:100C8000FB8D80819F85892379F40E941F046C1954
:100C90007D098E099F0909A11AA12BA13CA160170A
:100CA00071078207930758F38D8D9E8D009711F081
:100CB0000E94CE01EA89FB8990818F8580958923E6
:100CC0008083EE89FF8980819F85892B80838D8D2C
:100CD0009E8D0097B1F0DF91CF911F910F91FF9002
:100CE000EF90DF90CF900C94CE01EC89FD8990813C
:100CF000892380838F8D882309F4A4CFE889F9891B
:100D00009DCFDF91CF911F910F91FF90EF90DF90DA
:100D1000CF9008950F931F93CF93DF938C01D62F1D
:100D2000C8E06D2F6078C8010E940A06DD0FC1502F
:100D3000C1F7C801DF91CF911F910F910C949A05D3
:100D40009C01FC01EA5BFF4F9081D901AB5BBF4F77
:100D50008C91981750F4290F311DD90195962C913B
:100D600030E09F5F9083C90108952FEF3FEFFBCFE5
:100D7000FC01EA5BFF4FE081DC01AB5BBF4F2C91D4
:100D8000E21730F4E80FF92FF11D85A190E00895E6
:100D90008FEF9FEF0895FC01EB5BFF4F20813196B1
:100DA0009081422F491B550BCA010895CF93DF93C1
:100DB000FC01248D211106C0EC010E948A068111DC
:100DC00006C01C8E81E090E0DF91CF91089582E013
:100DD0008C8FF8CF1F93CF93DF93EC01162F1C8ECF
:100DE0000E943905882379F0612F660FCE010E9499
:100DF0008A06811105C01C8EDF91CF911F91089545
:100E000082E08C8FF9CF84E0FCCF90E080E0089501
:100E100060E086E00E940C0360E089E00E940C0321
:100E200060E08AE00C940C038F929F92AF92BF9285
:100E3000CF92DF92EF92FF920F931F9369017A0195
:100E4000611571058105910591F4C114D104E10486
:100E5000F10409F08EC01F910F91FF90EF90DF9089
:100E6000CF90BF90AF909F908F900C940807002375
:100E700099F020918601222379F00E9408071092B0
:100E800086011F910F91FF90EF90DF90CF90BF9060
:100E9000AF909F908F90089521E020938601970155
:100EA0008601000F111F221F331F0617170728077F
:100EB000390740F54B015C01801A910AA20AB30A76
:100EC000A5019401AFEFB0E00E944A1AA701960174
:100ED0000E94281AB90186E00E946B036FEF70E050
:100EE00089E00E946B036FEF70E08AE01F910F9121
:100EF000FF90EF90DF90CF90BF90AF909F908F903A
:100F00000C946B03C616D706E806F906B0F49B01ED
:100F1000AC012C193D094E095F09AFEFB0E00E940A
:100F20004A1AA70196010E94281A690170E060E040
:100F300086E00E946B03B601D3CF61157105810570
:100F40009105C9F0AFEFB0E09B01AC010E944A1AD5
:100F5000A70196010E94281A690170E060E086E00E
:100F60000E946B0370E060E089E00E946B03B601B1
:100F7000BCCF01117ECF70E060E08AE00E946B037D
:100F80007ECF61E083E10E940C0368E572E080E0BF
:100F900090E00E94ED0360E083E10C940C030F935A
:100FA0001F93CF93DF93FC012481222331F080E053
:100FB000DF91CF911F910F910895EC010E941F04C2
:100FC0000D811E812F813885601B710B820B930B65
:100FD000088119812A813B810617170728073907DD
:100FE00030F70E941F046D837E838F83988781E092
:100FF000DFCFCF93DF93DC0114962D913C911597B1
:10100000232B79F0FB01CD91DC9160817181CE01C0
:101010000E94E81D009729F08C1B9D0BDF91CF915A
:1010200008958FEF9FEFFACF0F931F93CF93DF9326
:10103000EC0188819981009759F02A813B8126171C
:10104000370730F081E0DF91CF911F910F91089524
:101050008B016F5F7F4F0E94101D009759F099839D
:1010600088831B830A832C813D81232B59F7FC0144
:101070001082E8CF80E0E7CFEF92FF920F931F93AB
:10108000CF93DF936115710541F480E0DF91CF913B
:101090001F910F91FF90EF90089541155105B1F008
:1010A0007B01EC010C811D81040F151FB8010E940A
:1010B0001408882351F3288139818C819D81B701DF
:1010C000820F931F0E94E11D1D830C8381E0DECF00
:1010D000CF93DF93EC0188819981009711F00E94F2
:1010E000871C198218821D821C821B821A82DF9142
:1010F000CF910895CF93DF93EC01FB010190002085
:10110000E9F73197AF01461B570B0E943C0881114C
:1011100003C0CE010E946808CE01DF91CF910895EF
:10112000CF93DF93EC01FB01448155816081718194
:101130000E943C08811103C0CE010E946808CE01C4
:10114000DF91CF910895EF92FF920F931F93CF936A
:10115000DF93EC017B018A01BA010E94140881111E
:101160000BC0CE010E946808CE01DF91CF911F9184
:101170000F91FF90EF9008951D830C83B701888134
:1011800099810E94E11DF0CFFB0101900020E9F759
:101190003197AF01461B570B0C94A308EF92FF92B7
:1011A0000F931F93CF93DF93CDB7DEB7A1970FB601
:1011B000F894DEBF0FBECDBF7C01CB01BA01F701B1
:1011C0001182108213821282158214828E010F5FA7
:1011D0001F4F22E044E00E940215009789F0BC01F5
:1011E000C7010E94C408A1960FB6F894DEBF0FBED7
:1011F000CDBFDF91CF911F910F91FF90EF90089598
:10120000C7010E946808EFCFFC011182108213828F
:10121000128215821482FB0101900020E9F73197B8
:10122000AF01461B570B0C94A308FC0180819181F0
:10123000009711F00C94871C0895FB01DC011196B6
:101240001C921E9213961C921E92129715961C9237
:101250001E9214978617970749F060817181611576
:10126000710521F0448155810C94A30808954F9293
:101270005F926F927F928F929F92AF92BF92CF9226
:10128000DF92EF92FF920F931F93CF93DF9300D0E3
:1012900000D000D0CDB7DEB7FC01E480F580E114CA
:1012A000F10409F49FC049012A013B015C01C0809F
:1012B000D180FB0160817181C6010E94E81D009709
:1012C00009F490C08C010C191D090F3F100709F497
:1012D00089C0F30164817581060F171F0E151F0564
:1012E00008F072C06BE370E0C601800F911F0E948E
:1012F000D61D009709F468C08C199D097C018017E0
:10130000910728F4902F812F8701E92EF82E6AE4A7
:1013100071E0CE0101960E940409F501C480D580D8
:101320000C151D05E8F4EC14FD0408F46701F50143
:1013300060817181FB01EC0DFD1DF0801082600F5A
:10134000711FCE0101966115710509F440C00E941C
:10135000C408F50180819181C80ED91EF601F08282
:1013600089819A810097B1F10E942015F401608370
:1013700071838283938389819A81009779F10E9496
:1013800020150E94811BF201608371838283938305
:10139000CE0101960E94150981E026960FB6F894B9
:1013A000DEBF0FBECDBFDF91CF911F910F91FF9098
:1013B000EF90DF90CF90BF90AF909F908F907F90F5
:1013C0006F905F904F9008958FEF9FEF97CF0E949F
:1013D0006808BFCF60E070E0CB01C8CF60E070E08C
:1013E000CB01CFCF80E0D9CF1F920F920FB60F92D3
:1013F00011242F933F934F935F936F937F938F931A
:101400009F93AF93BF93EF93FF9387E092E00E9487
:101410002B02FF91EF91BF91AF919F918F917F919F
:101420006F915F914F913F912F910F900FBE0F9051
:101430001F9018951F920F920FB60F9211242F93A1
:101440008F939F93EF93FF93E0911702F09118020F
:101450008081E0911D02F0911E0282FD1BC09081EF
:10146000809120028F5F8F7320912102821741F0BB
:10147000E0912002F0E0E95FFD4F958F809320021C
:10148000FF91EF919F918F912F910F900FBE0F9031
:101490001F9018958081F4CF1F920F920FB60F9274
:1014A00011242F933F938F939F93AF93BF9380917A
:1014B000F5019091F601A091F701B091F8013091FA
:1014C000F40123E0230F2D3758F50196A11DB11D1E
:1014D0002093F4018093F5019093F601A093F70116
:1014E000B093F8018091F9019091FA01A091FB016C
:1014F000B091FC010196A11DB11D8093F90190935B
:10150000FA01A093FB01B093FC01BF91AF919F91B1
:101510008F913F912F910F900FBE0F901F901895B4
:1015200026E8230F0296A11DB11DD2CF1F920F9264
:101530000FB60F9211242F933F934F935F936F93A6
:101540007F938F939F93AF93BF93EF93FF9380917C
:10155000B900887F803609F44AC0F0F5883209F472
:10156000A5C018F5803109F499C0B8F4882309F4AE
:10157000F5C0883009F492C0FF91EF91BF91AF910F
:101580009F918F917F916F915F914F913F912F919B
:101590000F900FBE0F901F901895883109F486C0E8
:1015A000803251F78093CD0114C0803409F49BC080
:1015B00040F48033B9F38833F9F68093CD0185EC9C
:1015C000AEC0803509F483C0883509F494C08834EE
:1015D00099F60E945D04D0CF883909F48AC038F5A5
:1015E000883729F050F4883611F0803729F683E0E7
:1015F0008093CE011092CC0155C0883809F479C08F
:10160000803919F0803809F0B7CF8091CC01803251
:1016100008F06FC0E091CC0181E08E0F8093CC0187
:101620008091BB00F0E0E455FE4F80833BC0803BDF
:1016300039F0D0F4803A09F477C0883A09F09CCFA9
:1016400084E08093CE011092AB011092AA01F0E0E9
:10165000E0E009958091AA0181110FC081E080939B
:10166000AA0110928A0109C0803C09F4A8CF883CE5
:1016700009F4A5CF883B09F07FCFE091AB0181E071
:101680008E0F8093AB01F0E0E657FE4F8081809390
:10169000BB009091AB018091AA0129C08091F30118
:1016A0008093BB0085EC8093BC0066CF9091F201E3
:1016B0008091F101981758F5E091F20181E08E0FC9
:1016C0008093F201F0E0EF52FE4F8081E9CFE0918C
:1016D000F20181E08E0F8093F2018091BB00F0E077
:1016E000EF52FE4F80839091F2018091F1019817A3
:1016F000C8F285E8D8CFE091F20181E08E0F8093A7
:10170000F2018091BB00F0E0EF52FE4F80838091A8
:10171000D00181115ECF81E08093CF0184EA809374
:10172000BC001092CE0128CF85EC8093BC001092B3
:10173000CE018091CC01803230F4E091CC01F0E018
:10174000E455FE4F10826091CC0170E08CEA91E08C
:10175000F0E0E0E009951092CC010ECF1092CD019F
:1017600038CF1F920F920FB60F9211240F900FBE19
:101770000F901F901895E7E0F2E01382128288EE36
:1017800093E0A0E0B0E084839583A683B7832CE147
:1017900031E03183208325EC30E03587248724EC49
:1017A00030E03787268720EC30E0318B208B21EC2E
:1017B00030E0338B228B22EC30E0358B248B26EC0F
:1017C00030E0378B268B118E128E138E148EE4EA46
:1017D000F2E016821782108611861286138614860E
:1017E000158616861786108A118A128A138A148A19
:1017F000158AE9E4F4E024E0208725E02187E0E48D
:10180000F4E0148280839183A283B383E7E3F4E05E
:10181000148240EE53E964E070E0408351836283B8
:101820007383EEE2F4E014824CEA53E060E070E08F
:101830004083518362837383E5E2F4E0148248E8D5
:1018400053E160E070E04083518362837383ECE195
:10185000F4E0148240EA5BEB6DE070E0408351837A
:1018600062837383E3E1F4E0148280839183A28333
:10187000B383EDEEF3E080E49EE7A5E0B0E0808383
:101880009183A283B38380E497E7ABE1B0E08683E2
:101890009783A087B18784E090E09787868781E06F
:1018A00090E09093B3038093B2031092E7031092F9
:1018B000E8031092E9031092EA031092EC031092ED
:1018C000EB030895CF93DF93CDB7DEB7C756D109A9
:1018D0000FB6F894DEBF0FBECDBF789484B582609A
:1018E00084BD84B5816084BD85B5826085BD85B5C4
:1018F000816085BD80916E00816080936E00109242
:1019000081008091810082608093810080918100BC
:10191000816080938100809180008160809380004D
:101920008091B10084608093B1008091B0008160AB
:101930008093B00080917A00846080937A008091D7
:101940007A00826080937A0080917A00816080932F
:101950007A0080917A00806880937A001092C100AA
:101960001092E6021092E7021092E8021092E90249
:101970001092A6021092A7021092A8021092A90239
:101980000E941F046B017C014B015C0128EB820E5D
:101990002BE0921EA11CB11C0E941F046C157D053A
:1019A0008E059F0528F086169706A806B906A0F7AB
:1019B00068EE73E080E090E00E94ED030E94270152
:1019C0000E941F046093A6027093A7028093A8024E
:1019D0009093A90240E150E06AE271E087E092E072
:1019E0000E94A1010E941F046B017C014B015C015C
:1019F0006AE0860E911CA11CB11C0E941F046C158C
:101A00007D058E059F0528F086169706A806B9065F
:101A1000A0F781E08093BA020E941F046093A6029F
:101A20007093A7028093A8029093A90246E050E029
:101A30006BE371E087E092E00E94A1010E94270120
:101A400061E086E00E943A0361E089E00E943A0387
:101A500061E08AE00E943A0361E083E10E943A0378
:101A600060E08EE00E943A0361E08EE00E940C0389
:101A700061E08CE00E943A0361E088E00E943A0352
:101A800061E088E00E940C0360E08FE00E943A036E
:101A900061E080E10E943A0360E08CE00E940C0368
:101AA00061E08BE00E943A0360E08BE00E940C034F
:101AB00028E4222E312C2C0E3D1E88E0280E311CED
:101AC00038EE432E33E0532E612C712C8EE00E94B1
:101AD000E302892B09F0A0C00E941F044B015C01A6
:101AE000E8EE8E0EE3E09E1EA11CB11CEE24E394F2
:101AF000F12CDD24D3940E941F04681579058A0512
:101B00009B0508F07AC064E670E080E090E00E94F7
:101B1000ED038EE00E94E3028C01892B61F70E94A5
:101B20001F044B015C01F8EB8F0EFBE09F1EA11C14
:101B3000B11C80910D04882309F446C08091F10303
:101B40009091F2038E0D9F1D8430910508F03FC0E7
:101B50009093F2038093F103D0920D040E941F042E
:101B60006093FD037093FE038093FF039093000442
:101B700061E08CE00E940C0380910D04882321F029
:101B80000091F1031091F203B801110F880B990B2A
:101B900000E021E030E040E050E00E941407809136
:101BA0000D048823C9F08091F1039091F2038330F2
:101BB000910581F46CED75E080E090E00E94ED030A
:101BC000EE24EA94FE2C97CF90E080E0BBCF83E038
:101BD00090E0BECF892B51F46CED75E080E090E091
:101BE0000E94ED03EE24E394F12C85CF66E970E0CA
:101BF00080E090E00E94ED037ECF80910D04882369
:101C000009F469C28091F1039091F203892B09F4E0
:101C100062C281E08093120480E494E00E94CF07C6
:101C2000882309F4E4C00E941F046B017C01109218
:101C3000100480910D04882309F1A091F103B09163
:101C4000F2032091ED033091EE034091EF035091A8
:101C5000F0030E94C91B0091FD031091FE03209127
:101C6000FF0330910004060F171F281F391F0C15A2
:101C70001D052E053F0510F410920D0480910F04F0
:101C80008823D9F08091010490910204A09103046B
:101C9000B09104044091F7035091F8036091F90367
:101CA0007091FA03840F951FA61FB71F8C159D0511
:101CB000AE05BF0510F410920F0480910E04882326
:101CC00009F44CC08091FD039091FE03A091FF03A5
:101CD000B09100044091F3035091F4036091F50337
:101CE0007091F603840F951FA61FB71F8C159D05D5
:101CF000AE05BF0598F580910F0481112FC080912A
:101D00000D0481112BC080911104811127C081E045
:101D1000809311040E941F046093050470930604CD
:101D200080930704909308042091FB033091FC03F7
:101D3000032E000C440B550B6091F3037091F403D8
:101D40008091F5039091F6030E94281A20930904CC
:101D500030930A0440930B0450930C0480911104B7
:101D6000882341F18091050490910604A091070415
:101D7000B09108044091090450910A0460910B0449
:101D800070910C04840F951FA61FB71F8C159D051D
:101D9000AE05BF0578F481E080930E041092110423
:101DA0000E941F046093FD037093FE038093FF0362
:101DB0009093000480910D04882319F081E08093B2
:101DC000100480910E04811115C6109211048091A7
:101DD0000F04882319F081E080931004809110048F
:101DE000882309F47BC161E08CE00E940C038FE042
:101DF0000E94E302892B09F47FC161E080E10E9427
:101E00000C0361E08BE00E940C030E941F046093AE
:101E10003C0470933D0480933E0490933F048EE213
:101E200094E00E94CF07882309F43CC240915204F9
:101E3000209151041C821B824D825E826F827886C3
:101E40008AE091E09A8389832D874E8781E088A379
:101E500089A382E090E09F8F8E8F4AA25BA26CA242
:101E60007DA230E0F901ED51FE4F849121533E4FA8
:101E7000F90124912F8790E0880F991FFC01EB5303
:101E8000FE4F259134913A8B298BFC01E554FE4F8E
:101E9000259134913E8B2D8BFC01EF54FE4F8591A3
:101EA00094919A8F898F242F30E0F901ED51FE4FE4
:101EB000849121533E4FF9012491288B90E0880FA3
:101EC000991FFC01EB53FE4F459154915C8B4B8B5A
:101ED000FC01E554FE4FA591B491B88FAF8BFC0186
:101EE000EF54FE4F859194919C8F8B8F27961FAE58
:101EF000279728961FAE2897EC9120952E232C9398
:101F000088A1882331F0EB89FC8980819889892B0D
:101F100080838E8D9F8D009711F00E94CE01ED89F8
:101F2000FE8990818F8580958923808388A188236D
:101F300031F0E989FA8980819F85892B808314E0BB
:101F40008E8D9F8D009711F00E94CE011150C1F728
:101F500088A1882331F062E070E080E090E00E9488
:101F6000ED0329961FAE29972A961FAE2A972B9626
:101F70001FAE2B972C961FAE2C972D961FAE2D972C
:101F80002E961FAE2E972F961FAE2F9760961FAEE0
:101F900060976CE5CE0101960E94EA06CE0101969B
:101FA0000E94B7046CE5CE0101960E94EA0663E048
:101FB000CE0101960E94D60660E0CE0101960E94F5
:101FC000D60664E0CE0101960E94D606CE010196A7
:101FD0000E94B7048D8D811190C18BEF98E101971C
:101FE000F1F727961FAE279728961FAE2897CE01A8
:101FF00001960E943905882309F4A7C069EBCE0138
:1020000001960E948A0681119DC01D8ECE01019607
:102010007C0110E000E0D12CA8E0CA2E07301105A9
:1020200009F47AC0DD0CCE0101960E949A05D82AE7
:10203000CA94C110F7CF60E0CE0101960E940A0653
:102040008E8D9F8D009711F00E94CE01F701D5A2D1
:102050000F5F1F4FFFEFEF1AFF0A08301105D9F687
:1020600088E027968FAF2797CE0101960E94B7048C
:102070008E01085B1F4F7801CE0101960E94A006D9
:10208000F70181937F01E215F305B1F760968FADFB
:10209000609790E0982F88272F962FAD2F97280FC5
:1020A000392F311D47E08FEF9FEF415009F44FC0AA
:1020B000F80151918F01852758E0BC0161707727A5
:1020C00096958795672B21F0F1E08F27F0EA9F27FF
:1020D000515099F7EACF109212049ECD60E08CE047
:1020E0000E940C0380911204882309F480CE0E9480
:1020F000C107109212047BCE87E394E00E94CF07C1
:10210000882309F48CCE60E080E10E940C0360E03B
:102110008BE00E940C0383CEDD0CCE0101960E9461
:102120009A05D82ACA94C110F7CF61E0CE01019672
:102130000E940A068E8D9F8D009711F00E94CE019D
:10214000DDA686CF82E08D8F8FCF84E0FCCF28176D
:10215000390709F0D5C02D961FAD2D97612F70E07E
:10216000762F6627CB0188279F772E966FAD2E9707
:10217000680F792F711D90E080E00E94091920E01E
:1021800030E040E251E40E94081B17FD9058609334
:10219000490470934A0480934B0490934C042B960B
:1021A0006FAD2B97862F90E0982F88272C966FADD8
:1021B0002C97680F792F711D90E080E00E9409191B
:1021C00020E030E040E251E40E94081B60934D049F
:1021D00070934E0480934F049093500490E080E0FD
:1021E0002AE031E03A83298318A2ED89FE89308103
:1021F0002F8520952323208328A1222331F0E989EC
:10220000FA8920813F85232B2083EF89F88D308147
:10221000288920952323208328A1222331F0EB89CC
:10222000FC8920813889232B208301970297D0F1E4
:1022300040914D0450914E0460914F0470915004B0
:1022400040930102509302026093030270930402D0
:102250008091490490914A04A0914B04B0914C04A0
:102260008093FD019093FE01A093FF01B0930002C3
:102270008091E4039091E5038C3091052CF4019654
:102280009093E5038093E403E091E403F091E50388
:10229000EE0FFF1FEE0FFF1FE055FC4F40835183F1
:1022A0006283738385E294E00E94CF07882309F458
:1022B0006EC1E090E403F090E50394EBC92E93E047
:1022C000D92E70E060E010E000E00E151F05DCF490
:1022D000F60181909190A190B1906F01072E000CB2
:1022E000880B990B0E940B19A50194010E949C1A5E
:1022F0000E947A1B0F5F1F4FE8CF81E090E070CF04
:1023000082E090E06DCFCB01B7010E94B51B8B013D
:10231000072E000C880B990B0E940B196B017C0196
:10232000C092E703D092E803E092E903F092EA0357
:102330008091EB039091EC03892B41F41093EC0313
:102340000093EB031093EB020093EA026091EB031E
:102350007091EC03072E000C880B990B0E940B194F
:102360009B01AC01C701B6010E949B1A20E030E03E
:1023700040E450E40E94B01B18160CF08DC180910F
:102380000E0481110FC081E080930E04109211049D
:102390000E941F046093FD037093FE038093FF036C
:1023A0009093000480912004882361F00E941F0410
:1023B0006093210470932204809323049093240457
:1023C000109220048CE194E00E94CF0781110E94BA
:1023D0004F011092E5031092E403109112048091D2
:1023E00006028111126080910D04811114608091A8
:1023F00010048111186080910F0481111061809187
:102400000E04811110628091E603811110648BE04B
:102410000E94E302892B09F01068109206022A96A6
:102420001FAE1EAE2A972C961FAE1EAE2C972E9670
:102430001FAE1EAE2E9740E1BE016F5F7F4F812F12
:1024400090E00E943815BE016F5F7F4FCE01885B20
:102450009F4F0E94C4088091EB039091EC03629619
:102460001FAE1EAE629764961FAE1EAE6497669650
:102470001FAE1EAE66974AE0BE016F5F7F4F0E949F
:102480002D15BE016F5F7F4FCE01805B9F4F0E9475
:10249000C4084091E7035091E8036091E90370910B
:1024A000EA03CE0101960E94CE084091FD015091B1
:1024B000FE016091FF0170910002CE018A5A9F4F88
:1024C0000E94CE0862E471E0CE01845A9F4F0E94C0
:1024D0000409BE016A5A7F4FCE01845A9F4F0E9461
:1024E000900864E471E00E947A08BE016F5F7F4F3C
:1024F0000E94900864E471E00E947A08BE01605B6B
:102500007F4F0E94900864E471E00E947A08BE0147
:10251000685B7F4F0E94900866E471E00E947A0831
:10252000BC01CE018E599F4F0E941D09CE01845AD5
:102530009F4F0E941509CE018A5A9F4F0E9415098C
:10254000CE0101960E941509CE01805B9F4F0E942B
:102550001509CE01885B9F4F0E941509A8964EADC4
:102560005FADA897A4966EAD7FADA49787E092E08B
:102570000E94A10142E050E068E471E087E092E04F
:102580000E94A101CE018E599F4F0E94150983E13F
:1025900094E00E94CF07882309F45BC080910D046A
:1025A000882309F481C0A091F103B091F203209136
:1025B000ED033091EE034091EF035091F0030E9440
:1025C000C91B4B015C01C090FD03D090FE03E0905D
:1025D000FF03F0900004C80CD91CEA1CFB1C0E94ED
:1025E0001F046C157D058E059F0508F0F3C0A091B2
:1025F000F103B091F2032091ED033091EE0340918D
:10260000EF035091F0030E94C91B0091FD0310914C
:10261000FE032091FF03309100046B017C01C00E8A
:10262000D11EE21EF31E0E941F04C61AD70AE80A32
:10263000F90A09F4CFC0C501B40123E030E040E05D
:1026400050E00E94281A00910E04C701B6010E94B2
:10265000140787E092E00E940B02892B09F411C154
:102660006AE471E0CE01805B9F4F0E9404090E94E2
:102670002B0497FDB2C08D30910509F4AEC089835B
:102680001A8241E050E0BE016F5F7F4FCE01805B58
:102690009F4F0E943C08EBCF81E0809320040E9472
:1026A0004F0110920E0495CE80911104882389F178
:1026B0008090090490900A04A0900B04B0900C0440
:1026C000C0900504D0900604E0900704F090080440
:1026D000C80CD91CEA1CFB1C0E941F046C157D054C
:1026E0008E059F0508F076C0C0900504D0900604C2
:1026F000E0900704F09008048091090490910A0486
:10270000A0910B04B0910C04C80ED91EEA1EFB1E4A
:102710008ACF80910E04882369F18090F303909012
:10272000F403A090F503B090F603C090FD03D090A1
:10273000FE03E090FF03F0900004C80CD91CEA1CD3
:10274000FB1C0E941F046C157D058E059F0508F07B
:1027500041C0C090FD03D090FE03E090FF03F090D5
:1027600000048091F3039091F403A091F503B091DC
:10277000F603CACF80910F04882361F18090F7039C
:102780009090F803A090F903B090FA03C090010470
:10279000D0900204E0900304F0900404C80CD91C0B
:1027A000EA1CFB1C0E941F046C157D058E059F050D
:1027B00088F4C0900104D0900204E0900304F090EB
:1027C00004048091F7039091F803A091F903B0916C
:1027D000FA039ACF0E9408073CCF6BE471E0CE0168
:1027E00001960E940409BE01605B7F4FCE01885BA9
:1027F0009F4F0E941D099E012A5A3F4FAE01445A25
:102800005F4FBE016F5F7F4FCE01885B9F4F0E947D
:102810003709182FCE01885B9F4F0E941509CE0102
:1028200001960E9415091123C9F18091E6038111D7
:1028300023C06A968CAC9DACAEACBFAC6A9720E06E
:1028400030E0A901C501B4010E9404198823A1F058
:102850008AEEE82E82E0F82E02EB13E0C501B40107
:102860000E947A1BF701619371937F010E171F0776
:10287000A9F781E08093E603CE01805B9F4F0E9421
:10288000150980E090E0892B09F420C90E94170205
:10289000882309F41BC90E94000018C962E571E091
:1028A000CE0101960E940409BE01605B7F4FCE01FC
:1028B000885B9F4F0E941D099E012A5A3F4FAE011F
:1028C000445A5F4FBE016F5F7F4FCE01885B9F4FC1
:1028D0000E943709182FCE01885B9F4F0E9415096F
:1028E000CE0101960E9415091123E1F081E0809349
:1028F0000F040E941F0460930104709302048093EC
:10290000030490930404A0968CAD9DADAEADBFAD15
:10291000A0978093F7039093F803A093F903B093E3
:10292000FA03AACF6CE571E0CE0101960E9404097A
:10293000BE016F5F7F4FCE01805B9F4F0E94F90702
:102940008C01CE0101960E9415090F3F1F4F19F00F
:1029500010920F0491CF65E671E0CE0101960E94BE
:102960000409BE016F5F7F4FCE01805B9F4F0E94C5
:10297000F9078C01CE0101960E9415090F3F1F4FE8
:1029800019F00E94C10778CF62E771E0CE0101968D
:102990000E940409BE016F5F7F4FCE01805B9F4F95
:1029A0000E94F9078C01CE0101960E9415090F3F84
:1029B0001F4F29F061E08BE00E940C035DCF6BE7B5
:1029C00071E0CE0101960E940409BE016F5F7F4F46
:1029D000CE01805B9F4F0E94F9078C01CE010196CA
:1029E0000E9415090F3F1F4F09F446CF10920602AF
:1029F00060E0E1CF809111048111E9C981E0809309
:102A00001004E5C9EF920F931F93CF93DF93E80172
:102A100034E047FD34E1042E000C550B57FF03C092
:102A2000519541955109E32E022F242FAE010E94AA
:102A30005215CE01DF91CF911F910F91EF90089524
:102A4000662777270C94B11691110C94D91880320F
:102A500019F089508550C8F70895BB274A3031F4E2
:102A6000992322F4BDE2909581959F4F0C943915DE
:102A7000BB27FB015527AA27880F991FAA1FA41758
:102A800010F0A41B83955051B9F7A05DAA3308F04C
:102A9000A95DA193009779F7B111B1931192CB0180
:102AA0000C94F418A9E0B0E0E8E5F5E10C945B1AA9
:102AB0006A01F22EB02E102FFBE3AF2EA01608F401
:102AC0001BE31F5F012F27E0AE014F5F5F4F0E94A6
:102AD0000118BC018981982F9970913009F43FC089
:102AE0009BE2E1FC04C09E2D9170E0FC3AC05E2D9B
:102AF0005071E82FE87083FF46C084E0911101C057
:102B000083E0EF2DE81B8F1508F0E0E0D6018E2F53
:102B100020E2552351F1992329F0D6019C93C60157
:102B200001966C0196012D5F3F4FE2FE24C08EE4BA
:102B3000D6018C9391E411969C93119712968C93E5
:102B4000D9018E2F90E281111BC0E20FF32FF11DEE
:102B500010828EEF9FEF2996ECE00C94771A9DE29D
:102B6000C6CF90E2C4CF2D9381508111FCCFCE0E01
:102B7000D11CE0E0D0CF8EE6D6018C9391E6DBCF7E
:102B80009D938150E0CF482F447082FF3DC084E088
:102B9000911101C083E08F1510F4EF2DE81BD601D1
:102BA0008E2F20E2552309F1992329F0D6019C9319
:102BB000C60101966C0196012D5F3F4FE2FE1BC0DE
:102BC00089E4D6018C938EE411968C93119786E458
:102BD00012968C93D9018E2F90E2882309F4B5CFF9
:102BE0009D938150FACF2D9381508111FCCFCE0E51
:102BF000D11CE0E0D9CF89E6D6018C938EE6119600
:102C00008C93119786E6E4CF9B0177FF02C030E0FA
:102C100020E0A1E0B0E0911102C0B0E0A0E0F90135
:102C20003196AE0FBF1F8B2C912CBB2009F461C0D5
:102C30005401EFEFAE1ABE0AAA0DBB1DFA161B0611
:102C400019F014F04F2D4A1B511188C0E3FC59C0F4
:102C50007601A42FB0E2A1114FC0C40ED11C99235C
:102C600009F45BC040E0D6011196F60190836D0136
:102C7000552309F448C0012F060F9A81582F50712F
:102C800084FF03C0913309F4015010160CF047C0C3
:102C9000093008F008E0EEE2FE2E5B01A01AB10850
:102CA00085019194819491082F3F320729F4D60130
:102CB000FC92F60131966F016217730794F10217C7
:102CC00013077CF5DB01A21BB30BAA24A394B12C40
:102CD000AC0EBD1EAA0DBB1D11968C912150310961
:102CE000D601119628153905F4F0F60180836D019F
:102CF000DBCFB12CA12CA0CFF701B1937F01A15064
:102D0000AACF9111B0CFD601942F50E302C05D93AA
:102D100091509111FCCFC40ED11C40E0ACCF01E02A
:102D2000BACF80E3DBCF6217730731F4963388F4B0
:102D3000953311F4552369F0F6018083FD01842F4A
:102D400090E2811108C0A40FB11D1C9290E080E0B8
:102D500002CF81E3F1CF91938150F3CF911183CFD3
:102D60008ACFB0E0A0E0E7EBF6E10C945B1A5C01DF
:102D70007B016115710519F0DB018D939C93850131
:102D80000F5F1F4FF501D0818D2F90E00E94241519
:102D90006C01892BB9F5DD32B9F50F5F1F4FD501F5
:102DA0001196DC91C1E05801F1E0AF1AB10843E09F
:102DB00050E060E770E0C5010E94DC18892B69F5DE
:102DC000680182E0C80ED11C45E050E06BE670E07F
:102DD000C6010E94DC18892B21F4680197E0C90E16
:102DE000D11CE114F10419F0D701CD92DC9260E01E
:102DF00070E080E89FEFC111FFC060E070E080E804
:102E00009FE7FAC05801BBCFDB3229F485010E5F82
:102E10001F4FF501D181C0E0C6CF43E050E068E626
:102E200070E0C5010E94DC18892BE9F0F80110E080
:102E300000E020E030E0A9015F01B0ED8B2E8D0EA7
:102E400089E08815C8F19C2E689491F88C2F8870C1
:102E5000C2FF16C0811102C00F5F1F4F3196D5010E
:102E6000DC91C92DE9CFE114F10429F00E5F1F4F69
:102E7000F7011183008360E070E080EC9FE7BCC045
:102E8000882311F001501109A5E0B0E00E944A1A10
:102E90009B01AC01220F331F441F551F280D311D0C
:102EA000411D511D283999E93907490799E1590709
:102EB000A8F2C6609C2ED2CFAEEF8A1206C0C3FD28
:102EC0003CC09C2E689493F8C9CFDF7DD534A9F51A
:102ED00080818D3239F4C061DF011296818162E018
:102EE00070E006C0DF018B32C1F3119661E070E043
:102EF00080535D01A61AB70A8A30F8F4E0E8CE16CE
:102F0000ECE0DE065CF4B601660F771F660F771FF4
:102F1000C60ED71ECC0CDD1CC80ED11C5D01FFEF08
:102F2000AF1ABF0A8C9180538A30A8F1C4FF03C046
:102F3000D194C194D1080C0D1D1DC1FF09C0E1142D
:102F4000F10431F081E0A81AB108D701AD92BC922A
:102F5000CA01B9010E940919C370C33009F490581D
:102F60004B015C0120E030E0A9010E940419882394
:102F700009F440C0CFE9D0E017FF05C011950195D5
:102F80001109C7E8D0E06E01B8E1CB1AD10880E2A0
:102F9000E82EF12C0FC0D501B1CFFE01259135915E
:102FA000459154910E191F09C501B4010E946A1977
:102FB0004B015C01D501C4010E151F0574F7249760
:102FC000F594E794CC16DD06A9F78A2F880F8B2F8E
:102FD000881F8F3F49F020E030E0A901C501B4010E
:102FE0000E940419811106C082E290E0909354047B
:102FF00080935304C501B401CDB7DEB7ECE00C9467
:10300000771A283008F027E03327DA01990F311DAD
:1030100087FD916000966105710539F432602E5F7D
:103020003D9330E32A95E1F708959F3F30F08038D3
:103030007105610509F03C5F3C5F3D93913008F0FC
:103040008068911DDF93CF931F930F93FF92EF92B0
:10305000192F987F9695E92F96959695E90FFF275A
:10306000E350FF4F99273327EE24FF24A701E70100
:1030700005900894079428F4360FE71EF81E491FA0
:10308000511D660F771F881F991F0694A1F70590A1
:10309000079428F4E70EF81E491F561FC11D770F2D
:1030A000881F991F661F0694A1F70590079428F4BE
:1030B000F80E491F561FC71FD11D880F991F661F85
:1030C000771F0694A1F70590079420F4490F561F27
:1030D000C71FD81F990F661F771F881F0694A9F76F
:1030E00084911095177041F0D695C79557954795DF
:1030F000F794E7941A95C1F7E3EAF0E06894159025
:10310000159135916591959105907FE27395E11840
:10311000F10A430B560BC90BD009C0F7E10CF11EA5
:10312000431F561FC91FD01D7EF4703311F48A95BA
:10313000E6CFE894015030F0080F0AF40027021798
:1031400008F4202F2395022F7A3328F079E37D931A
:103150002A95E9F710C07D932A9589F606949795EC
:103160006795379517951794E118F10A430B560B9D
:10317000C90BD00998F023957E9173957A3308F0A6
:1031800070E37C932013B8F77E9170617D9330F0EB
:10319000839571E37D9370E32A95E1F71124EF9015
:1031A000FF900F911F91CF91DF91992787FD909507
:1031B0000895992788270895FB01DC01415050406C
:1031C00088F08D9181341CF08B350CF4805E659114
:1031D00061341CF06B350CF4605E861B611171F379
:1031E000990B0895881BFCCFDC01FC01672F7191BE
:1031F0007723E1F7329704C07C916D9370836291DD
:10320000AE17BF07C8F308950E94461908F481E07D
:103210000895E89409C097FB3EF4909580957095C9
:1032200061957F4F8F4F9F4F9923A9F0F92F96E912
:10323000BB279395F695879577956795B795F11187
:10324000F8CFFAF4BB0F11F460FF1BC06F5F7F4F24
:103250008F4F9F4F16C0882311F096E911C0772336
:1032600021F09EE8872F762F05C0662371F096E83F
:10327000862F70E060E02AF09A95660F771F881F0E
:10328000DAF7880F9695879597F90895990F0008B2
:10329000550FAA0BE0E8FEEF16161706E807F90728
:1032A000C0F012161306E407F50798F0621B730BC3
:1032B000840B950B39F40A2661F0232B242B252B44
:1032C00021F408950A2609F4A140A6958FEF811DE7
:1032D000811D08950E947D190C94EE190E94E01939
:1032E00038F00E94E71920F0952311F00C94D719BB
:1032F0000C94DD1911240C94221A0E94FF1970F30A
:10330000959FC1F3950F50E0551F629FF001729F8A
:10331000BB27F00DB11D639FAA27F00DB11DAA1F99
:10332000649F6627B00DA11D661F829F2227B00DE6
:10333000A11D621F739FB00DA11D621F839FA00D71
:10334000611D221F749F3327A00D611D231F849FC1
:10335000600D211D822F762F6A2F11249F57504018
:103360009AF0F1F088234AF0EE0FFF1FBB1F661F93
:10337000771F881F91505040A9F79E3F510580F05C
:103380000C94D7190C94221A5F3FE4F3983ED4F3BF
:10339000869577956795B795F795E7959F5FC1F700
:1033A000FE2B880F911D9695879597F9089597F9AB
:1033B0009F6780E870E060E008959FEF80EC0895DB
:1033C00000240A9416161706180609060895002404
:1033D0000A9412161306140605060895092E03947E
:1033E000000C11F4882352F0BB0F40F4BF2B11F4F2
:1033F00060FF04C06F5F7F4F8F4F9F4F089557FD51
:103400009058440F551F59F05F3F71F04795880F52
:1034100097FB991F61F09F3F79F0879508951216E9
:1034200013061406551FF2CF4695F1DF08C0161695
:1034300017061806991FF1CF869571056105089446
:103440000895E894BB2766277727CB0197F908955D
:10345000A1E21A2EAA1BBB1BFD010DC0AA1FBB1F98
:10346000EE1FFF1FA217B307E407F50720F0A21B0A
:10347000B30BE40BF50B661F771F881F991F1A9477
:1034800069F760957095809590959B01AC01BD01A1
:10349000CF0108950E948C1AA59F900DB49F900DA6
:1034A000A49F800D911D112408952F923F924F9259
:1034B0005F926F927F928F929F92AF92BF92CF92C4
:1034C000DF92EF92FF920F931F93CF93DF93CDB7CD
:1034D000DEB7CA1BDB0B0FB6F894DEBF0FBECDBF45
:1034E00009942A88398848885F846E847D848C8416
:1034F0009B84AA84B984C884DF80EE80FD800C811F
:103500001B81AA81B981CE0FD11D0FB6F894DEBF01
:103510000FBECDBFED010895A29FB001B39FC001C2
:10352000A39F700D811D1124911DB29F700D811DEF
:103530001124911D08955058BB27AA270E94B31A41
:103540000C94EE190E94E01938F00E94E71920F05F
:1035500039F49F3F19F426F40C94DD190EF4E0952C
:10356000E7FB0C94D719E92F0E94FF1958F3BA17FB
:10357000620773078407950720F079F4A6F50C9489
:10358000211A0EF4E0950B2EBA2FA02D0B01B901D4
:1035900090010C01CA01A0011124FF27591B99F0C9
:1035A000593F50F4503E68F11A16F040A22F232FD5
:1035B000342F4427585FF3CF469537952795A79525
:1035C000F0405395C9F77EF41F16BA0B620B730BCC
:1035D000840BBAF09150A1F0FF0FBB1F661F771F3D
:1035E000881FC2F70EC0BA0F621F731F841F48F4F2
:1035F000879577956795B795F7959E3F08F0B0CF7B
:103600009395880F08F09927EE0F97958795089561
:103610000E941C1B0C94EE190E94E71958F00E949E
:10362000E01940F029F45F3F29F00C94D7195111AB
:103630000C94221A0C94DD190E94FF1968F3992347
:10364000B1F3552391F3951B550BBB27AA2762179E
:103650007307840738F09F5F5F4F220F331F441FAB
:10366000AA1FA9F335D00E2E3AF0E0E832D09150DF
:103670005040E695001CCAF72BD0FE2F29D0660FCC
:10368000771F881FBB1F261737074807AB07B0E80F
:1036900009F0BB0B802DBF01FF2793585F4F3AF015
:1036A0009E3F510578F00C94D7190C94221A5F3F75
:1036B000E4F3983ED4F3869577956795B795F7959B
:1036C0009F5FC9F7880F911D9695879597F9089583
:1036D000E1E0660F771F881FBB1F6217730784071F
:1036E000BA0720F0621B730B840BBA0BEE1F88F72E
:1036F000E09508950E94811B6894B1110C94221AE0
:1037000008950E94071A88F09F5798F0B92F9927BB
:10371000B751B0F0E1F0660F771F881F991F1AF0BC
:10372000BA95C9F714C0B13091F00E94211AB1E0E6
:1037300008950C94211A672F782F8827B85F39F0E5
:10374000B93FCCF3869577956795B395D9F73EF455
:1037500090958095709561957F4F8F4F9F4F0895FD
:103760000E94461908F48FEF089597FB072E16F470
:10377000009407D077FD09D00E94D11B07FC05D02B
:103780003EF4909581959F4F0895709561957F4F78
:103790000895B7FF0C944A1A0E944A1A821B930B91
:1037A0000895AA1BBB1B51E107C0AA1FBB1FA61788
:1037B000B70710F0A61BB70B881F991F5A95A9F7DA
:1037C00080959095BC01CD010895EE0FFF1F0590E7
:1037D000F491E02D09940F931F93CF93DF938230E0
:1037E000910510F482E090E0E0915704F0915804C4
:1037F00030E020E0B0E0A0E0309799F421153105E9
:1038000009F44AC0281B390B24303105D8F58A81C8
:103810009B816115710589F1FB0193838283FE0110
:1038200011C0408151810281138148175907E0F08E
:103830004817590799F4109761F012960C93129754
:1038400013961C933296CF01DF91CF911F910F9168
:1038500008950093570410935804F4CF21153105AF
:1038600051F04217530738F0A901DB019A01BD015D
:10387000DF01F801C1CFEF01F9CF90935804809395
:103880005704CDCFFE01E20FF31F81939193225095
:10389000310939832883D7CF2091550430915604BC
:1038A000232B41F4209102013091030130935604FF
:1038B000209355042091000130910101211531051B
:1038C00041F42DB73EB74091040150910501241BEE
:1038D000350BE0915504F0915604E217F307A0F47C
:1038E0002E1B3F0B2817390778F0AC014E5F5F4F56
:1038F0002417350748F04E0F5F1F5093560440932E
:103900005504819391939FCFF0E0E0E09CCFCF935B
:10391000DF930097E9F0FC01329713821282A091A5
:103920005704B0915804ED0130E020E01097A1F465
:1039300020813181820F931F2091550430915604CC
:103940002817390709F061C0F0935604E093550435
:10395000DF91CF910895EA01CE17DF07E8F54A819C
:103960005B819E0141155105B1F7E901FB83EA83B3
:1039700049915991C40FD51FEC17FD0761F480815F
:1039800091810296840F951FE90199838883828132
:1039900093819B838A83F0E0E0E012968D919C9165
:1039A00013970097B9F52D913C911197CD0102968F
:1039B000820F931F20915504309156042817390720
:1039C00039F6309751F51092580410925704B0937D
:1039D0005604A0935504BCCFD383C2834081518148
:1039E000840F951FC817D90761F44E5F5F4F888118
:1039F0009981480F591F518340838A819B8193830A
:103A000082832115310509F0B0CFF0935804E0937B
:103A100057049ECFFD01DC01C0CF13821282D7CFA5
:103A2000B0E0A0E0E6E1FDE10C94571A8C010097AC
:103A300051F4CB010E94EB1B8C01C801CDB7DEB75E
:103A4000E0E10C94731AFC01E60FF71F9C01225071
:103A50003109E217F30708F49DC0D901CD91DC913B
:103A60001197C617D70798F0C530D10530F3CE01AE
:103A700004978617970708F3C61BD70B2297C193A5
:103A8000D1936D937C93CF010E94871CD6CF5B01AD
:103A9000AC1ABD0A4C018C0E9D1EA0915704B0912A
:103AA0005804512C412CF12CE12C109731F58091C8
:103AB0005504909156048815990509F05CC0461686
:103AC000570608F058C080910001909101010097BD
:103AD00041F48DB79EB74091040150910501841BBC
:103AE000950BE817F90708F055C0F0935604E093DA
:103AF0005504F90171836083A0CF8D919C9111973A
:103B000012966C90129713967C901397A815B9058E
:103B100059F56C0142E0C40ED11CCA14DB0420F13B
:103B2000AC014A195B09DA011296159780F062829E
:103B3000738251834083D9016D937C93E114F10426
:103B400071F0D7011396FC93EE93129776CF2296DD
:103B50008C0F9D1FF90191838083F301EFCFF093C8
:103B60005804E093570469CF4816590608F42C010D
:103B70007D01D3019ACFCB010E94EB1B7C01009702
:103B800049F0AE01B8010E94CD1DC8010E94871CFA
:103B9000870153CF10E000E050CFFB01DC0102C0F1
:103BA00001900D9241505040D8F70895FC01819149
:103BB000861721F08823D9F7992708953197CF01E7
:103BC0000895FB01DC0101900D920020E1F70895BA
:103BD000FB0151915523A9F0BF01DC014D9145171F
:103BE0004111E1F759F4CD010190002049F04D91C8
:103BF00040154111C9F3FB014111EFCF81E090E085
:083C000001970895F894FFCF2D
:103C080000005904800000000000D6069B04050748
:103C1800D901CB06A006B806000000004D02A1019C
:103C2800DA019A020B02E901FD01564D4450565F34
:103C3800317C315F564D4450560A00564D4450521F
:103C48005F007B002C007D000D0A0068756D6964BB
:103C58003A0066616E53746172743A0066616E531D
:103C6800746F703A006169727669636B5075736836
:103C78003A006C696768744F6E3A006C69676874DB
:063C88004F66663A0000E1
:107E0000112484B714BE81FFF0D085E080938100F7
:107E100082E08093C00088E18093C10086E0809377
:107E2000C20080E18093C4008EE0C9D0259A86E02C
:107E300020E33CEF91E0309385002093840096BBD3
:107E4000B09BFECF1D9AA8958150A9F7CC24DD24C4
:107E500088248394B5E0AB2EA1E19A2EF3E0BF2EE7
:107E6000A2D0813461F49FD0082FAFD0023811F036
:107E7000013811F484E001C083E08DD089C08234E0
:107E800011F484E103C0853419F485E0A6D080C0E4
:107E9000853579F488D0E82EFF2485D0082F10E0AE
:107EA000102F00270E291F29000F111F8ED06801E7
:107EB0006FC0863521F484E090D080E0DECF843638
:107EC00009F040C070D06FD0082F6DD080E0C81688
:107ED00080E7D80618F4F601B7BEE895C0E0D1E017
:107EE00062D089930C17E1F7F0E0CF16F0E7DF06D8
:107EF00018F0F601B7BEE89568D007B600FCFDCFD4
:107F0000A601A0E0B1E02C9130E011968C91119780
:107F100090E0982F8827822B932B1296FA010C0160
:107F200087BEE89511244E5F5F4FF1E0A038BF0790
:107F300051F7F601A7BEE89507B600FCFDCF97BE46
:107F4000E89526C08437B1F42ED02DD0F82E2BD052
:107F50003CD0F601EF2C8F010F5F1F4F84911BD097
:107F6000EA94F801C1F70894C11CD11CFA94CF0C13
:107F7000D11C0EC0853739F428D08EE10CD085E9AC
:107F80000AD08FE07ACF813511F488E018D01DD067
:107F900080E101D065CF982F8091C00085FFFCCF94
:107FA0009093C60008958091C00087FFFCCF809118
:107FB000C00084FD01C0A8958091C6000895E0E648
:107FC000F0E098E1908380830895EDDF803219F02E
:107FD00088E0F5DFFFCF84E1DECF1F93182FE3DFCA
:107FE0001150E9F7F2DF1F91089580E0E8DFEE27F6
:047FF000FF270994CA
:027FFE00040479
:0400000300007E007B
:00000001FF